:100000000C94AC000C94DD000C94DD000C94DD002D
:100010000C94DD000C94DD000C94DD000C94DD00EC
:100020000C94DD000C94DD000C94DD000C94DD00DC
:100030000C94D1110C94DD000C94DD000C94DD00C7
:100040000C94DD000C94DD000C94DD000C94DD00BC
:100050000C94DD000C94DD000C94DD000C94001178
:100060000C94DD000C9495110C946B110C94DD0034
:100070000C94DD000C94DD000C94DD000C94DD008C
:100080000C94DD000C94DD000C94DD000C94DD007C
:100090000C94DD000C94DD000C94DD000C94DD006C
:1000A0000C94DD000C94DD000C94DD000C94DD005C
:1000B0000C94DD000C94DD000C94DD000C94DD004C
:1000C0000C94DD000C94DD000C94DD000C94DD003C
:1000D0000C94DD000C94DD000C94DD000C94DD002C
:1000E0000C94DD000C9490000C9464110C94BC02F0
:1000F0000C94920E0C94ED100C9472020C94C40E9D
:100100000C94A4010C94C9010C94BF0E0C94B5017D
:100110000C949F000C94D7010C9441010C94DA0EBE
:10012000CF93DF931F92CDB7DEB7CE0101960E9429
:100130005A0569810E94560D0E94500EF6CF02C0EA
:100140000E9485080E94FF0E809190028230C0F3C9
:100150000E94A40AF5CF641111241FBECFEFD1E293
:10016000DEBFCDBF00E00CBF12E0A0E0B2E0EAE6E7
:10017000F6E200E00BBF02C007900D92A233B10778
:10018000D9F723E0A2E3B2E001C01D92A136B20785
:10019000E1F710E0CCEAD0E000E006C021970109C9
:1001A000802FFE010E941B13CB3AD10780E0080785
:1001B000A9F70E945B110C9433130C9400007894FF
:1001C00084B5826084BD84B5816084BD85B582605C
:1001D00085BD85B5816085BDEEE6F0E080818160FA
:1001E0008083E1E8F0E010828081826080838081FA
:1001F00081608083E0E8F0E0808181608083E1EBD2
:10020000F0E0808184608083E0EBF0E080818160B9
:100210008083E1E9F0E08081826080838081816079
:100220008083E0E9F0E0808181608083E1EAF0E0B2
:10023000808182608083808181608083E0EAF0E059
:10024000808181608083E1E2F1E08081826080834F
:10025000808181608083E0E2F1E080818160808341
:10026000EAE7F0E08081846080838081826080831F
:100270008081816080838081806880831092C1004A
:100280000895CF92DF92EF92FF920F931F93CF9337
:10029000DF938C01DB01D0E0C0E07A0181E0E81A55
:1002A000F108452BA1F0F80180819181FC012081AA
:1002B00031816D01FFEFCF1ADF0A6C91C801F9019E
:1002C0001995892B21F02196A701D601E6CFCE0101
:1002D000DF91CF911F910F91FF90EF90DF90CF9022
:1002E0000895019709F008956F3F7F4FE1F7E7EB1D
:1002F000F2E01382128288EE93E0A0E0B0E0848303
:100300009583A683B7838BE092E09183808385EC0D
:1003100090E09587848784EC90E09787868780ECCF
:1003200090E0918B808B81EC90E0938B828B82ECC0
:1003300090E0958B848B86EC90E0978B868B118E6A
:10034000128E138E148ECFCFFC01938D848D98174F
:1003500020F4891B990B019708952FE330E0291BA6
:100360003109820F932F911D0895FC01918D828D8B
:10037000981761F0A28DAE0FBF2FB11D5D968C91C5
:10038000928D9F5F9F73928F90E008958FEF9FEF04
:100390000895FC01918D828D981731F0828DE80FC0
:1003A000F11D858D90E008958FEF9FEF0895FC017A
:1003B000218D30E0205C3F4F828DA901481B5109FF
:1003C000CA018F739927089587EB92E00E94D701A5
:1003D00021E0892B09F420E0822F0895CF92DF924B
:1003E000EF92FF921F93CF93DF93EC016A017B01A1
:1003F000122F60E079E08DE390E0A70196010E9462
:10040000F9122150310941095109569547953795FF
:100410002795E889F98982E08083C11481EED806A6
:10042000E104F10421F0211580E1380798F0E88912
:10043000F989108260E874E88EE190E0A7019601E6
:100440000E94F912215031094109510956954795E9
:1004500037952795EC85FD853083EE85FF852083D4
:10046000188EEC89FD891083EA89FB89808180617F
:100470008083EA89FB89808188608083EA89FB899F
:10048000808180688083EA89FB8980818F7D808379
:10049000DF91CF911F91FF90EF90DF90CF90089563
:1004A000FC01A48DA80FB92FB11DA35ABF4F2C91E9
:1004B000848D90E001968F739078848FA689B78998
:1004C0002C93A089B1898C91837080648C93938DD7
:1004D000848D981308950288F389E02D80818F7DA3
:1004E0008083F8CF0F931F93CF93DF93EC0181E0CC
:1004F000888F9B8D8C8D9817B1F0062F8B8D90E097
:1005000001968F739078182F8C8D81131EC00FB6B3
:1005100007FCFACFE889F989808185FFF5CFCE0104
:100520000E945002F1CFE889F989808185FFE5CFEB
:100530009FB7F894EE89FF896083E889F989808103
:100540008370806480839FBF10C0EB8DEC0FFD2F04
:10055000F11DE35AFF4F00839FB7F8941B8FEA8980
:10056000FB898081806280839FBF81E090E0DF9182
:10057000CF911F910F910895CF93DF93EC01888D58
:10058000811104C00DC00FB607FE0DC0EA89FB89BA
:10059000808185FDF8CFA889B9898C9186FFF3CF3A
:1005A000DF91CF910895808185FFF0CFE889F989A7
:1005B000808185FFEBCFCE010E945002E7CF80E023
:1005C00090E0892B21F00E94E401811125C080E098
:1005D00090E0892B41F080E090E0892B21F00E948F
:1005E000000081111CC080E090E0892B41F080E088
:1005F00090E0892B21F00E940000811113C080E05F
:1006000090E0892B41F080E090E0892B21F00E945E
:10061000000081110AC008950E940000D8CF0E94F6
:100620000000E1CF0E940000EACF0E940000F3CF5B
:100630000FB6F8940F92FC01828D882321F080E0A0
:100640000F900FBE089581E0FBCFA89588E190EC54
:100650000FB6F894A895809360000FBE9093600049
:10066000089583B1806883B9089584B1806884B99E
:1006700085B1806885B90895E0918C02F0918D0272
:100680008081882371F0E0918C02F0918D020580C9
:10069000F681E02D8081918190938802809387027A
:1006A00008958FEF9FEF90938802809387020895BB
:1006B0000F931F93CF93DF938091B602811108C1EE
:1006C000C0918E02D0918F028E010F5F1F4F109349
:1006D0008F0200938E020115110529F18091870286
:1006E0009091880208171907B0F580E0E091320276
:1006F000F0913302E6892E2F30E0F901EE0FFF1F53
:10070000EE0FFF1FEE0FFF1FE20FF31FE057FD4F2D
:100710009081923008F081E09091B502992309F41C
:10072000E1C081E0DFC080918C0290918D02209128
:100730008A0230918B0230938D0220938C02909329
:100740008B0280938A02809189028F5F8093890255
:100750000E943C03C3CF80E05EC02FEF3FEF309399
:10076000880220938702C2CF3093880220938702A9
:10077000BDCF2681378112963C932E9311977EC070
:10078000158A148A9C9191509C9326899091B40269
:10079000921710F42093B40230E0D901AA0FBB1FC6
:1007A000AA0FBB1FAA0FBB1FA20FB31FA057BD4F9D
:1007B00011960D90BC91A02DB583A48314962D9114
:1007C0003C9115973783268314962D913C9115976C
:1007D000E9015B834A8315965C934E931497A6892F
:1007E0002A2F30E0D901AA0FBB1FAA0FBB1FAA0FE7
:1007F000BB1FA20FB31FA057BD4FB387A2879C9109
:100800009F5F9C932689E0913202F0913302968992
:10081000291708F081E0E0918C02F0918D0290811F
:10082000992309F49ACFE0918C02F0918D02058012
:10083000F681E02D0680F781E02D228133810217B9
:10084000130708F491CFA285B385248135814681B1
:100850005781E9015D834C8326813781448155812D
:10086000E9015B834A83AF014E5F5F4F11962D9183
:100870003C9112972417350709F47BCF1386128613
:100880009C9191509C93A489B589109709F47DCFD0
:100890002685378560897189E9017D836C8320898C
:1008A000318966857785E9017B836A8311966D912D
:1008B0007C9112979F01245F3F4F6217730709F0E5
:1008C0005FCF2089318912963C932E93119758CF90
:1008D0008091850290918602019690938602809382
:1008E000850280E0DF91CF911F910F9108950E94C2
:1008F0002503A0913202B0913302CD91CDBFDD919D
:10090000DEBFFF91EF91DF91CF91BF91AF919F91AA
:100910008F917F916F915F914F913F912F911F9197
:100920000F91FF90EF90DF90CF90BF90AF909F908E
:100930008F907F906F905F904F903F902F901F907F
:100940000F900CBE0F900BBE0F900FBE0F9008952E
:1009500081E00895FC0160833197708331971082A4
:1009600031971082319720E8208331971082319798
:100970001082319710827797408331975083869702
:100980000895CF93DF93FC01A085B185C281D38107
:10099000848195819D838C83C481D581828193815B
:1009A0009B838A8311968D919C9112978E179F0736
:1009B00049F0118610868C9181508C938C91DF9137
:1009C000CF9108958481958112969C938E9311976F
:1009D000F0CFCF93DF93EB01488159814F3F54070C
:1009E00019F0DC01139605C0FC01A781B0850AC08F
:1009F000DF011296ED91FC9113972081318142170E
:100A00005307B0F71296ED91FC911397FB83EA839D
:100A1000D583C483BD83AC831396DC93CE931297A6
:100A200099878887FC0120812F5F2083DF91CF91F8
:100A30000895FC01118610860895FC0103969283A7
:100A400081832FEF3FEF34832383968385839087C1
:100A5000878310820895FC01738362839187808766
:100A600046175707A0F0421B530B848595854817FE
:100A7000590710F081E00895BF016E5F7F4F8091AC
:100A80006D0290916E020E94E90480E00895421781
:100A9000530718F46217730758F4BF016E5F7F4F56
:100AA00080916F02909170020E94E90480E00895A5
:100AB00081E00895DC01E0916F02F0917002808185
:100AC00091E0811190E09C93911106C00580F68120
:100AD000E02D80819181089590E080E00895EF926B
:100AE000FF920F931F93CF93DF93EC018B017A0159
:100AF00008C08C859D85080F191FE889F989CE01EA
:100B000019956C857D85600F711F9801A701CE0135
:100B10000E942B058111EDCFDF91CF911F910F9195
:100B2000FF90EF900895EF92FF920F931F93CF9352
:100B3000DF938C017B01E0916F02F09170020580E0
:100B4000F681E02DC681D781CE0102960E94C104B4
:100B50008A8982FD0DC08E7F8A8BE889F989CE0152
:100B60001995DF91CF911F910F91FF90EF9008950C
:100B7000A701B801CE010E946F05EFCF09C0058023
:100B8000F681E02D6FEF7FEF808191810E949305C8
:100B9000E0916F02F091700280818111F0CF80911D
:100BA0006D0290916E029093700280936F02F093A9
:100BB0006E02E0936D020895FF920F931F93CF93FF
:100BC000DF93EC01F62E00918E0210918F0280913E
:100BD00032029091330202960E94C104CF3FDC079B
:100BE00029F1C00FD11FE0913202F0913302D3837B
:100BF000C283C017D10708F44FC0609132027091D0
:100C0000330280918C0290918D026E5F7F4F0E9423
:100C1000E9048091870290918802C817D90708F0EB
:100C200047C0D0938802C093870242C0FF20C9F218
:100C3000E0E6F2E0A181B281C0913202D0913302AC
:100C4000BD83AC83C0913202D091330214968D9152
:100C50009C9115979F838E838091320290913302ED
:100C60001496CD91DC91159702969B838A8380918F
:100C7000320290913302029615969C938E931497AC
:100C8000A0913202B09133021B96FC93EE931A9717
:100C900080818F5F80830CC060913202709133023B
:100CA00080918A0290918B026E5F7F4F0E94E904CF
:100CB000DF91CF911F910F91FF900895CF93C0E0E6
:100CC00010C02C2F30E0C901880F991F880F991F81
:100CD000880F991F820F931F80579D4F0E941D05FB
:100CE000CF5FC43070F38CE492E00E941D0583E472
:100CF00092E00E941D058AE392E00E941D0587E5AF
:100D000092E00E941D0580E692E00E941D058CE4A1
:100D100092E090938D0280938C0283E492E0909312
:100D20008B0280938A02CF91089581E08093B5026F
:100D3000089520918902FC01208320918E02309138
:100D40008F023283218308951F93CF93DF930FB6D1
:100D5000F8940F9240918E0250918F02DC0111960F
:100D6000ED91FC91DA01AE1BBF0BEB0128813981BB
:100D70002F3F320721F1EC011881C09189021C1725
:100D800019F04E175F0768F4A217B30778F0EB016C
:100D90001982188281E00F900FBEDF91CF911F91D1
:100DA0000895FB011182108281E0F5CF2A1B3B0BD5
:100DB000DB012D933C930E94990680E0ECCF80E00C
:100DC000EACFCF93DF93DC011596ED91FC9106807D
:100DD000F781E02DA489B589C685D7858089918959
:100DE0009D838C83C089D189868597859B838A83DF
:100DF0009F01245F3F4F11968D919C91129782170E
:100E0000930709F471C0158A148A8C9181508C93D0
:100E10008091B602811176C0A285B385C481D58147
:100E2000868197819D838C83C681D78184819581BA
:100E30009B838A839F012E5F3F4F11968D919C91DA
:100E400012978217930709F456C0138612868C9165
:100E500081508C9386899091B402981710F48093F6
:100E6000B40290E0DC01AA0FBB1FAA0FBB1FAA0FA0
:100E7000BB1FA80FB91FA057BD4F11960D90BC9175
:100E8000A02DB583A48314968D919C91159797837B
:100E900086831496CD91DC9115973B832A83159612
:100EA0003C932E931497A6898A2F90E0DC01AA0F19
:100EB000BB1FAA0FBB1FAA0FBB1FA80FB91FA057AC
:100EC000BD4FB387A2878C918F5F8C939689E091F9
:100ED0003202F09133028689891780F581E0809390
:100EE000B502DF91CF9108958089918912969C93E4
:100EF0008E93119788CF8681978112969C938E93BB
:100F00001197A3CF4AE352E0DA011196CD91DC911B
:100F1000D787C6878C819D81918B808B8C819D81A9
:100F2000DC0113963C932E9312973D832C83558BB3
:100F3000448BDA018C918F5F8C93C8CF80E0D1CF46
:100F40001F93CF93DF93EC010FB6F8940F921E8D91
:100F500003C00E9495061150111654F48989882304
:100F600039F0CE0141960E94E1068823A1F3F1CF2A
:100F70008FEF8E8F0F900FBE0FB6F8940F921D8DCE
:100F800003C00E9495061150111654F488858823D9
:100F900039F0CE0108960E94E1068823A1F3F1CF33
:100FA0008FEF8D8F0F900FBEDF91CF911F9108951E
:100FB0000F931F93CF93DF93FC018B01A181B2812B
:100FC0008091320290913302EC01BF87AE8780910D
:100FD00032029091330214962D913C911597EC01B9
:100FE000398B288B209132023091330214968D91E7
:100FF0009C911597245F3F4FEC013B832A832091FE
:10100000320230913302245F3F4F15963C932E936A
:101010001497A0913202B09133025596FC93EE934F
:10102000549790819F5F9083442311F00FEF1FEF3F
:10103000642FC8010E94DC05DF91CF911F910F91B1
:101040000895CF93DF93EC010FB6F8940F928D8D36
:101050008F3F71F08E8D8F3F69F00F900FBE8A8D9C
:10106000882351F0CE010E94A007DF91CF9108950F
:101070001D8EF0CF1E8EF1CFCE0141960E94D80773
:10108000F1CFCF93DF93EB01609132027091330285
:10109000645F7F4F0E94E90461E0CE010E94DC059D
:1010A000DF91CF9108950FB6F8940F9280918E0240
:1010B00090918F020F900FBE08950F931F93CF93BF
:1010C000DF938C010E945308EC0180916B02909198
:1010D0006C02C817D90760F0F8011082D0936C0237
:1010E000C0936B02CE01DF91CF911F910F910895B4
:1010F0000E94BE0581E0F8018083F0CF8091B602A6
:101100008F5F8093B602089508950E94DF020895CC
:1011100008950895FC01448D4423A9F050E02681F0
:101120003781240F351F37832683848195812817C3
:10113000390720F08081918197838683CB01668176
:1011400077810E94231308950F920FB6F8940F929F
:101150000BB60F920CB60F921F9211242F923F9252
:101160004F925F926F927F928F929F92AF92BF92B7
:10117000CF92DF92EF92FF920F931F932F933F93A3
:101180004F935F936F937F938F939F93AF93BF938F
:10119000CF93DF93EF93FF93A0913202B09133028C
:1011A0000DB60D920EB60D9213BE8091B60281114E
:1011B00011C120918E0230918F022F5F3F4F3093EB
:1011C0008F0220938E022115310581F580918C02CA
:1011D00090918D0240918A0250918B0250938D0222
:1011E00040938C0290938B0280938A0280918902B3
:1011F0008F5F80938902E0918C02F0918D02808153
:10120000811107C08FEF9FEF909388028093870230
:101210000DC0E0918C02F0918D020580F681E02DE9
:1012200080819181909388028093870280918702C8
:10123000909188022817390720F440E0B1C041E0BE
:1012400001C040E0E0918C02F0918D02808181111B
:1012500007C08FEF9FEF9093880280938702A0C012
:10126000E0918C02F0918D020580F681E02D0680E0
:10127000F781E02D828193812817390728F4909314
:101280008802809387028CC0A285B385C481D581F2
:10129000668177817D836C83C681D7816481758106
:1012A0007B836A83BF016E5F7F4F11968D919C9106
:1012B00012978617970731F48681978112969C932F
:1012C0008E931197138612868C9181508C93A489EA
:1012D000B589109701F1C685D785808991899D834D
:1012E0008C83C089D189868597859B838A83119653
:1012F000CD91DC911297CF010C96C817D90731F424
:101300008089918912969C938E931197158A148ADD
:101310008C9181508C9386899091B402981710F427
:101320008093B40290E0DC01AA0FBB1FAA0FBB1F81
:10133000AA0FBB1FA80FB91FA057BD4F11960D9044
:10134000BC91A02DB583A48314968D919C91159783
:10135000978386831496CD91DC9115977B836A835E
:1013600015967C936E931497868990E0DC01AA0F02
:10137000BB1FAA0FBB1FAA0FBB1FA80FB91FA057E7
:10138000BD4FB387A2878C918F5F8C939689E09134
:101390003202F09133028689981708F050CF52CF6D
:1013A000E0913202F0913302868990E0FC01EE0F69
:1013B000FF1FEE0FFF1FEE0FFF1FE80FF91FE05793
:1013C000FD4F8081823008F041E08091B5028111AB
:1013D0000CC00CC08091850290918602019690937A
:1013E00086028093850240E001C041E0442309F475
:1013F0007CC08091B602882321F081E08093B50201
:1014000074C01092B502A0913202B0913302E09103
:101410003202F09133022D913C918789908D821791
:101420009307D8F08091320290913302809132027A
:101430009091330284B1806884B985B1806885B9A0
:101440002FEF87EA91E6215080409040E1F700C0FD
:10145000000083B1806883B9F3CF4091B40201C02A
:101460004150842F90E0FC01EE0FFF1FEE0FFF1F95
:10147000EE0FFF1FE80FF91FE057FD4F20812223D9
:1014800079F39C01220F331F220F331F220F331FCA
:10149000280F391FDF010180F281E02D0280F381E6
:1014A000E02D1296FC93EE9311972D563D4FE217C7
:1014B000F30729F422813381FD0132832183FC016A
:1014C000EE0FFF1FEE0FFF1FEE0FFF1FE80FF91FBC
:1014D000E057FD4F0180F281E02D86819781909346
:1014E0003302809332024093B402A0913202B09151
:1014F0003302CD91CDBFDD91DEBFFF91EF91DF9142
:10150000CF91BF91AF919F918F917F916F915F919B
:101510004F913F912F911F910F91FF90EF90DF908E
:10152000CF90BF90AF909F908F907F906F905F9083
:101530004F903F902F901F900F900CBE0F900BBEBE
:101540000F900FBE0F9008950F920FB6F8940F9260
:101550000BB60F920CB60F921F9211242F923F924E
:101560004F925F926F927F928F929F92AF92BF92B3
:10157000CF92DF92EF92FF920F931F932F933F939F
:101580004F935F936F937F938F939F93AF93BF938B
:10159000CF93DF93EF93FF93A0913202B091330288
:1015A0000DB60D920EB60D928091B602882321F0F1
:1015B00081E08093B50274C01092B502A09132020E
:1015C000B0913302E0913202F09133022D913C91BF
:1015D0008789908D82179307D8F08091320290917D
:1015E0003302809132029091330284B1806884B9D1
:1015F00085B1806885B92FEF87EA91E62150804058
:101600009040E1F700C0000083B1806883B9F3CF58
:101610004091B40201C04150842F90E0FC01EE0FD4
:10162000FF1FEE0FFF1FEE0FFF1FE80FF91FE05720
:10163000FD4F2081222379F39C01220F331F220FBB
:10164000331F220F331F280F391FDF010180F28162
:10165000E02D0280F381E02D1296FC93EE9311971A
:101660002D563D4FE217F30729F422813381FD0106
:1016700032832183FC01EE0FFF1FEE0FFF1FEE0FE1
:10168000FF1FE80FF91FE057FD4F0180F281E02DA9
:101690008681978190933302809332024093B40203
:1016A000A0913202B0913302CD91CDBFDD91DEBF6A
:1016B000FF91EF91DF91CF91BF91AF919F918F916A
:1016C0007F916F915F914F913F912F911F910F915A
:1016D000FF90EF90DF90CF90BF90AF909F908F9052
:1016E0007F906F905F904F903F902F901F900F9042
:1016F0000CBE0F900BBE0F900FBE0F900895CF93AE
:10170000DF93009709F447C0FC01238D222309F4DD
:1017100044C0EC010FB6F8940F9220813181838D83
:1017200090E0448D50E0849FF001859FF00D949FE0
:10173000F00D1124E20FF31FFD83EC831A8E3B831F
:101740002A830197849FF001859FF00D949FF00DEF
:1017500011242E0F3F1F3F832E838FEF8D8F8E8F8F
:10176000611110C08885811104C00F900FBE81E007
:1017700015C0CE0108960E94E1068823B1F30E94AD
:10178000A40AF3CFCE0108960E941D05CE01419612
:101790000E941D05EACF80E001C080E0DF91CF917B
:1017A00008950F931F93F801662359F051834083E6
:1017B000838F648F61E0CF010E947F0B1F910F9197
:1017C000089511830083F4CFCF93DF930FB6F8947D
:1017D0000F928091B60281508093B6028091B6023A
:1017E0008111C9C080915602882309F4C5C0F0E078
:1017F000E0E080913A02882309F49AC0E0913F0228
:10180000F09140020680F781E02DA489B589C68554
:10181000D785808991899D838C83C089D18986856C
:1018200097859B838A83CF010C9611962D913C91CD
:1018300012972817390709F46DC0158A148A8C91FC
:1018400081508C93A285B385C481D581868197818F
:101850009D838C83C681D781848195819B838A8374
:101860009F012E5F3F4F11968D919C911297821789
:10187000930709F456C0138612868C9181508C937D
:1018800086899091B402981710F48093B40290E086
:10189000DC01AA0FBB1FAA0FBB1FAA0FBB1FA80FFB
:1018A000B91FA057BD4F11960D90BC91A02DB583C7
:1018B000A48314968D919C91159797838683149693
:1018C000CD91DC9115973B832A8315963C932E93FB
:1018D0001497A6898A2F90E0DC01AA0FBB1FAA0FDC
:1018E000BB1FAA0FBB1FA80FB91FA057BD4FB387BF
:1018F000A2878C918F5F8C939689A0913202B091D0
:10190000330256968C91981708F473CF81E0809338
:10191000B5026FCF8089918912969C938E9311970F
:101920008CCF8681978112969C938E931197A3CF2B
:10193000EF2B11F00E943C03C0918502D0918602EA
:10194000209741F48091B502811111C080E014C04C
:10195000219741F00E9458038823D1F381E08093BE
:10196000B502F6CF1092860210928502EBCF0E944C
:10197000A40A81E001C080E00F900FBEDF91CF91FB
:101980000895CF92DF92EF92FF920F931F93CF9320
:10199000DF9300D01F921F92CDB7DEB78C016B0191
:1019A0005D834C83E12C43C0B601C8010E948A08C4
:1019B000FA94F801F28E8085811111C00F900FBE4C
:1019C00081E00F900F900F900F900F90DF91CF91CB
:1019D0001F910F91FF90EF90DF90CF900895C80175
:1019E00008960E94E106882349F30E94A40AE6CFE4
:1019F0000F900FBE80E0E5CFCE0101960E949906C0
:101A0000EE24E39421C0158E2AC0168E2CC0C80186
:101A10000E94A0070E94E40B0AC0C8010E94A00710
:101A20000E94E40BC8010E94180381113DC00FB64B
:101A3000F8940F92F801F28CF110B6CF8C819D8151
:101A4000892BB1F2EE20C1F20F900FBE0E947E08EA
:101A50000FB6F8940F92F801858D8F3FA1F2F8012F
:101A6000868D8F3F91F20F900FBEBE016C5F7F4F4E
:101A7000CE0101960E94A4068111CFCFC8010E9419
:101A80001803882309F4C3CF6C817D81C801419676
:101A90000E944108C8010E94A0070E94E40B811126
:101AA000C6CF0E94A40AC3CF80E08BCFCF92DF9233
:101AB000EF92FF921F93CF93DF931F92CDB7DEB7C4
:101AC0007C01162F0E947E08CE0101960E945D08BF
:101AD0006C018981811130C0111103C0CE14DF0463
:101AE00008F5112341F0E0916D02F0916E028081C2
:101AF00011E0811110E0B7016C197D09412F80912F
:101B00008302909184020E9421080E94E40B8823A2
:101B100081F00F90DF91CF911F91FF90EF90DF90B8
:101B2000CF9008950E94E40BB601C7010E9493056F
:101B3000F0CF0E94A40AEDCF0E94E40BEACFCF932E
:101B4000DF93EC01892B51F00E947E0860E0CE010A
:101B50000E94DC050E94E40B811102C00E94A40ACD
:101B6000DF91CF910895CF93DF93EC010FB6F894F6
:101B70000F92809156028F5F8093560280913202BD
:101B800090913302892B89F080913702811116C020
:101B9000E0913202F091330296898E89891770F0B4
:101BA000D0933302C093320209C0D0933302C09362
:101BB000320280915602813009F44FC08091360282
:101BC0008F5F809336028E899091B402981710F43B
:101BD0008093B40290E0FC01EE0FFF1FEE0FFF1F99
:101BE000EE0FFF1FE80FF91FE057FD4F0180F28154
:101BF000E02DFD83EC83848195819F838E83A48176
:101C0000B581CE01029613969C938E93129795837D
:101C10008483EE898E2F90E0FC01EE0FFF1FEE0F04
:101C2000FF1FEE0FFF1FE80FF91FE057FD4FFB8767
:101C3000EA8780818F5F80830F900FBE809137028B
:101C4000882341F0E0913202F091330296898E8927
:101C5000981730F0DF91CF9108950E945E06AECFC5
:101C60000E94A40AF7CF0E9435032FEF80E792E08D
:101C7000215080409040E1F700C000000E943103F5
:101C8000F4CFCF93DF93009741F0EC010E947E08E0
:101C9000CE010E9470120E94E40BDF91CF91089553
:101CA000EF92FF920F931F93CF93DF9300D000D05A
:101CB000CDB7DEB750E040E0BE016F5F7F4F80914F
:101CC0008302909184020E94C10C882309F47DC094
:101CD000898188237CF30C811D81D8011A968D910E
:101CE0009C91892B21F0C80102960E94C104CE016B
:101CF00006960E945D087C01E981E150E930D0F64A
:101D00000E2E000CFF0B8827E757F14F8F4F0C94D6
:101D10001B13920E920EBF0EC40EDA0E920E920E8E
:101D2000BF0EC40EF80182898160828B2A813B81BB
:101D300064857585620F731FA701C8010E942B057A
:101D4000882309F4B7CFD80152968C91529782FD1F
:101D50000AC08E7FF801828BD8015096ED91FC91DC
:101D6000C8011995A7CF6A817B811C968D919C91A2
:101D7000680F791FA701C8010E946F05EDCFF80118
:101D800082898E7F828B96CFD80152968C91529702
:101D9000816052968C9352976A817B811D967C93C9
:101DA0006E931C976E0D7F1D9701A701C8010E94BD
:101DB0002B0580CFF801828981FF03C08E7F828B43
:101DC00079CFC8010E94410E75CF26960FB6F894C0
:101DD000DEBF0FBECDBFDF91CF911F910F91FF905E
:101DE000EF900895CF93DF93EC018F89988D0E9437
:101DF000410ECE010E94410EDF91CF910895CF9305
:101E0000DF931CC00FB6F8940F92E0915C02F09142
:101E10005D02C681D781CE0102960E94C1048091E5
:101E200056028150809356028091550281508093D2
:101E300055020F900FBECE010E94F20E8091550206
:101E40008111E0CFDF91CF910895CF93DF93EC0123
:101E50000E947E08CE010E94D411EC010E94E40B86
:101E6000209721F0CE01DF91CF9108950E94330E8B
:101E7000DF92EF92FF920F931F93CF93DF9388230C
:101E800019F1869F90011124213E9FEF3907F8F444
:101E9000D42ED62FC82FC9014F960E94250F7C0142
:101EA000009749F08C012D2DAC01415E5F4F6D2FE5
:101EB0008C2F0E94D10BC701DF91CF911F910F9101
:101EC000FF90EF90DF900895F12CE12CF4CFF12CEE
:101ED000E12CF1CF0FB6F8940F928091830290918C
:101EE0008402892B19F00F900FBE08958AE792E0C3
:101EF0000E941D0581E792E00E941D058AE792E09D
:101F00009093700280936F0281E792E090936E024B
:101F100080936D0240E065E08AE00E94380F909364
:101F2000840280938302DFCF4F925F926F927F9201
:101F30008F929F92AF92BF92CF92DF92EF92FF92D9
:101F40000F93CF93DF932C015B014A013901E60126
:101F500065EA70E08F89988D0E942C138F89988D87
:101F600021E0821A9108880E991EA114B10409F487
:101F700051C020E0283080F4822F90E0F501E80F76
:101F8000F91F30818C0F9D1FDC0159963C93808195
:101F9000882311F02F5FEECF18A2043008F003E081
:101FA0000E8B09A31AA2CE0102960E941905CE013A
:101FB0000C960E941905D987C88784E090E0801BA1
:101FC00091099D878C87DB8BCA8B84E0FE01B396D9
:101FD000DF011D928A95E9F71FA2A301B201C40196
:101FE0000E94AA0499838883E114F10419F0F7018F
:101FF000D183C083DF91CF910F91FF90EF90DF905D
:10200000CF90BF90AF909F908F907F906F905F9098
:102010004F900895198EC1CF2F923F924F925F92A9
:102020006F927F928F929F92AF92BF92CF92DF92E8
:10203000EF92FF920F93CF93DF933C011B014A0174
:102040002901CA010E94250F6C01892B71F188E2D8
:1020500090E00E94250FEC01892B19F1D88ECF8AD0
:10206000209729F1B12CA12C6E019201A401B1019C
:10207000C3010E94940FCE010E94B30D81E0DF9155
:10208000CF910F91FF90EF90DF90CF90BF90AF90E6
:102090009F908F907F906F905F904F903F902F9088
:1020A0000895C6010E94410EDBCF8FEFE8CF8FEF7E
:1020B000E6CFEF92FF920F930E946A0F8091830206
:1020C00090918402892BA9F00F2EF9E6EF2EF2E011
:1020D000FF2EF02D03E030E020E045E550E069E11F
:1020E00072E080E990E00E940C100F91FF90EF9059
:1020F000089580E0FACFEF92FF920F930F2EF8E34E
:10210000EF2EF2E0FF2EF02D00E030E020E040EC7A
:1021100050E061E272E08FE990E00E940C108130A3
:1021200041F0813049F0809100020F91FF90EF90D3
:1021300008950E945910F5CFF8948FEF9FEF909378
:1021400088028093870281E08093370210928F0289
:1021500010928E020E947704E6CFEF92FF920F93C7
:10216000CF93DF931F921F92CDB7DEB726E040E8F2
:1021700055E260E070E087EB92E00E94EE011A8287
:102180001982CE0101967C0100E021E030E040E0C0
:1021900058E066E272E08DEE90E10E940C10813012
:1021A00009F0FFCF0E947B100F900F90DF91CF912D
:1021B0000F91FF90EF900895209105023091060253
:1021C0008FEF91E2821B930B9093020280930102A6
:1021D0000E94AD100E947B100895E091B702F0912B
:1021E000B8020280F381E02D46E050E06BE272E03D
:1021F00087EB92E019958EE390E00E949F0DEDCF62
:102200001F920F920FB60F9211240F931F932F93CB
:102210003F934F935F936F937F938F939F93AF936E
:10222000BF930091590310915A0320915B033091A1
:102230005C0390915803B901A8014F5F5F4F6F4F46
:102240007F4F83E0890F8D3740F086E8890FB90111
:10225000A8014E5F5F4F6F4F7F4F809358034093AD
:10226000590350935A0360935B0370935C0380910E
:10227000540390915503A0915603B09157030196D2
:10228000A11DB11D8093540390935503A093560351
:10229000B0935703BF91AF919F918F917F916F91B1
:1022A0005F914F913F912F911F910F910F900FBE12
:1022B0000F901F9018950E94DF000E94DC100E9472
:1022C000AD100E94DF02FDCF6FEF7FEF81E090E065
:1022D0000E94710108951F920F920FB60F92112460
:1022E0000BB60F922F933F934F935F936F937F9310
:1022F0008F939F93AF93BF93EF93FF9387EB92E0FE
:102300000E945002FF91EF91BF91AF919F918F91E9
:102310007F916F915F914F913F912F910F900BBEE5
:102320000F900FBE0F901F9018951F920F920FB62F
:102330000F9211240BB60F922F938F939F93AF930D
:10234000BF93EF93FF93E091C702F091C8028081A1
:1023500082FD14C0E7EBF2E0A689B7892C91818D4C
:102360008F5F8F73928D891771F0DF01E18DF0E03F
:10237000E954FD4F258F59968C9305C0E091CD020D
:10238000F091CE028081FF91EF91BF91AF919F912B
:102390008F912F910F900BBE0F900FBE0F901F903B
:1023A00018950E94A40818950F931F93CF93DF935D
:1023B0008230910510F482E090E0E0915F03F091AB
:1023C000600330E020E0B0E0A0E0309799F4211500
:1023D000310509F44AC0281B390B24303105D8F5E2
:1023E0008A819B816115710589F1FB019383828349
:1023F000FE0111C0408151810281138148175907A4
:10240000E0F04817590799F4109761F012960C9371
:10241000129713961C933296CF01DF91CF911F91A3
:102420000F91089500935F0310936003F4CF21157B
:10243000310551F04217530738F0A901DB019A0129
:10244000BD01DF01F801C1CFEF01F9CF9093600327
:1024500080935F03CDCFFE01E20FF31F8193919331
:102460002250310939832883D7CF20915D033091E1
:102470005E03232B41F42091030230910402309338
:102480005E0320935D032091010230910202211529
:10249000310541F42DB73EB7409105025091060237
:1024A000241B350BE0915D03F0915E03E217F30707
:1024B000A0F42E1B3F0B2817390778F0AC014E5FB4
:1024C0005F4F2417350748F04E0F5F1F50935E0390
:1024D00040935D03819391939FCFF0E0E0E09CCF28
:1024E000CF93DF930097E9F0FC01329713821282B9
:1024F000A0915F03B0916003ED0130E020E0109700
:10250000A1F420813181820F931F20915D033091CE
:102510005E032817390709F061C0F0935E03E0936A
:102520005D03DF91CF910895EA01CE17DF07E8F54B
:102530004A815B819E0141155105B1F7E901FB8399
:10254000EA8349915991C40FD51FEC17FD0761F437
:10255000808191810296840F951FE9019983888378
:10256000828193819B838A83F0E0E0E012968D91D3
:102570009C9113970097B9F52D913C911197CD013E
:102580000296820F931F20915D0330915E032817FE
:10259000390739F6309751F51092600310925F03B6
:1025A000B0935E03A0935D03BCCFD383C28340810D
:1025B0005181840F951FC817D90761F44E5F5F4F93
:1025C00088819981480F591F518340838A819B815B
:1025D000938382832115310509F0B0CFF093600316
:1025E000E0935F039ECFFD01DC01C0CF1382128216
:1025F000D7CFA1E21A2EAA1BBB1BFD010DC0AA1F3B
:10260000BB1FEE1FFF1FA217B307E407F50720F05B
:10261000A21BB30BE40BF50B661F771F881F991FD6
:102620001A9469F760957095809590959B01AC011F
:10263000BD01CF010895EE0FFF1F881F8BBF0790CC
:10264000F691E02D1994FB01DC0102C001900D927E
:1026500041505040D8F70895DC0101C06D934150BE
:0A2660005040E0F70895F894FFCF12
:10266A00030000610380000000000072024101A41F
:10267A0001BC02D701B501C901546D7220537663BA
:10268A000049444C45004E414D450064656E656DF8
:02269A006500D9
:00000001FF
